:03000000020003F8
:10000300758109E4787FF6D8FD75A0007508FF02B5
:02001300005299
:1000150075900075B000D2B2D2B3D2B4D2B5D2B118
:0100250022B8
:10002600E4FAFB8EF0B2F7EA6480B5F004EBB507AC
:0B0036000050070BEB70EC0A80E92281
:0D0041008E028F03EF1F70011EEA4B60035B
:04004E000080F0221C
:0300520012001584
:0B005500C2B020B21730B51430B1115A
:10006000D290C291C292C293D2B0E4FE7F5F1200DE
:0A0070004120B31730B51430B11170
:10007A00D291C290C292C293D2B0E4FE7F321200F1
:07008A004120B40B30B50862
:0B009100D292C290C291C29320B50829
:0B009C00D293C290C291C29230B5AE68
:0400A700C29380AAD6
:00000001FF
