:03000000020237C2
:0C000300E0A3FCE0A3FDE0A3FEE0FF2270
:10000F00C2D1C2D5EE30E707D2D1D2D51200BCECA7
:10001F0030E705B2D11200C412003730D1031200FD
:10002F00BC30D5031200C422BC000EBE0032EF8DCF
:10003F00F08420D226FFADF0227B0075F008EF2F61
:10004F00FFEE33FEEB33FBEE9DEB9C4005FBEE9D8D
:10005F00FE0FD5F0E9E4CECDCBCC227EFF7FFF2281
:10006F00EDB410005022EE8DF084FEEF54F045F009
:10007F00C48DF084C4FCEF540FC445F0C48DF084DC
:10008F00FFADF0E4CC4FFF22EE8DF08420D2CC7E7A
:10009F0008CEC5F0CDCBEF2FFFED33FD10D7079B6B
:1000AF005005D5F0F1229BFD0FD5F0EA22C3E49F56
:0D00BF00FFE49EFE22C3E49DFDE49CFC22B4
:1000CC00D2D57F018002C2D5ED70030202325407F3
:1000DC002323F58289F0EAFDEB700122540345825B
:1000EC002390013673E608F70920D50470F7803F9A
:1000FC00DEF3DFF1803989828D83E608F0A320D509
:10010C000470F7802ADEF3DFF18024E608F309207F
:10011C00D50470F78019DEF3DFF1801388828C83AD
:10012C00E0A3F70920D50470F78004DEF3DFF102B9
:10013C00022F80B180AF80BE80D180E080DE805104
:10014C00806B80168014803480218099809780A6E3
:10015C0080B980438041803C8068E208F70920D553
:10016C000470F780CADEF3DFF180C4E208F30920E3
:10017C00D50470F780B9DEF3DFF180B389828D830B
:10018C00E208F0A320D50470F780A4DEF3DFF18041
:10019C009E02020A0201E488828C83E493A3F7098D
:1001AC0020D50470F68088DEF2DFF080F888828C2F
:1001BC0083E0A3F30920D50470F780E9DEF3DFF1C7
:1001CC0080E388828C83E493A3F30920D50470F632
:1001DC0080D3DEF2DFF080CD88828C83E493A3C9D8
:1001EC00C582C9CDC583CDF0A3C9C582C9CDC58390
:1001FC00CD20D50470E680ADDEE2DFE080A78882FA
:10020C008C83E0A3C9C582C9CDC583CDF0A3C9C574
:10021C0082C9CDC583CD20D50470E780DFDEE3DF56
:03022C00E180D995
:08022F00A9F022E4FBFAF92218
:10023700758151E4787FF6D8FD75A0007550FF02EF
:02024700051F91
:10024900120003EFB2E7FF8003120003E58124FDEA
:10025900F8F9E63308E63370060203C20203B10473
:1002690060FAEE33EF33700EE6FF18E6FE18E6FD8E
:1002790018E6FC0203C20460E3E58124FBF8D3EC31
:100289009608ED9608EE9608EFC2E786F0C2F79554
:10029900F0400FEFC6FF18EEC6FE18EDC6FD18ECCC
:1002A900C6FC1203D3C3EB9FF5F0700EE58124FB66
:1002B900F9E4C3CC20D5730203849418605C400E22
:1002C900E4FF19E7FE19E7FD19E7FC020360E4FF03
:1002D90030F405CEFCE4CDFF30F305E4CECDCCCF30
:1002E90030F21AE5D054184404F8EF54F0D6C4FF9C
:1002F90008ECD6C4FC08EDD6C4FDEEC4FE74035563
:10030900F06012F5F0C3EE13FEED13FDEC13FCEFF4
:1003190013FFD5F0F030D55D8009E4CEFFE4FDFC94
:1003290030D552C3E49FCC191919C797CD09C7977E
:10033900CE09C797FF4E4D4C70140203C2DB03026E
:1003490003B5EC2CFCED33FDEE33FEEF33FFEF305C
:10035900E7EBECCFCECDFCEF30E70D0CBC00090D7F
:10036900BD00050EBE00010BEB7005A2D10203A969
:10037900A2D10203BCE42FCC19191937CD0937CE04
:100389000937FF50090BEB700CA2D10203A9EFCE7C
:10039900CDCCFF80C2EF13CE13CD13CC13FF80B7A2
:1003A90074FF13FF7E80800774FF8001E4FFFEFD68
:1003B900FC800613FFEE92E7FED0E0F8D0F0E5816D
:1003C90024FCF581C0F0E8C0E022E7D2E7C7330991
:1003D900E733FB92D592D1EED2E7CE33EF33FF501C
:0403E90002B2D52265
:1003ED001204338000EC3392D550031204217A208D
:1003FD00C3EC20E712EF33FFEE33FEED33FDEC33AC
:10040D00FC20E703DAEF22EA247DA2D513FFEC925C
:10041D00E7CEFC22E4C39FFFE49EFEE49DFDE49C39
:10042D00FC22C2D580C8EED2E7CE33EF3392D5246D
:10043D0081400CE4C2D5A2D513FC33FDFEFF22246E
:10044D00E0500474FF80EFF404FAE4CCCDCECF80FD
:10045D000DC3EF13FFEE13FEED13FDEC13FCDAF1FC
:10046D0020D507EECDFEEFCCFF22E4C39CFCE49D2E
:10047D00FDE49EFEE49FCCFFEECDFE22EFC2E7FF32
:10048D0080A47A083392D5E4FDFEFF30D503120423
:10049D0022EC334010EF33FFEE33FEED33FDEC3342
:1004AD00FCDAEE80BEEA247EA2D513CC92E7CDCE47
:0304BD00FF80B00D
:1004C000E58124FEF88FF063F080E6F96480B5F0F2
:1004D0001B188EF0E6B5F014188DF0E6B5F00D1887
:1004E0008CF0E6B5F006E4FFFE0203C28FF030F7B1
:1004F0000689F030F701B340077F017E000203C296
:0705000074FFFFFE0203C2BD
:0E0507008E028F03EF1F70011EEA4B70F3226D
:0A051500C0F9A4B0999282F880901A
:10051F007D057C0578157B01E4FA79147E0A1200BB
:10052F00CCE4F508F509F51EF51FF50AF50BF520D6
:10053F00F521F50CF50D750EC0750F41F510F51180
:10054F0075127A751344F522752301F524F525F5F7
:07055F0026F527F528F52918
:10056600AC0CAD0DAE0EAF0F1204338E2A8F2BAC32
:1005760010AD11AE12AF131204338E2C8F2DAE2A8E
:10058600AF2BE4FC7D0A12000F8C388D39AE2AAFF2
:100596002BE4FC7D0A12000F8E2E8F2FAE2EAF2F6E
:1005A600E4FC7D0A12000F8C3A8D3BAE2CAF2DE495
:1005B600FC7D0A12000F8C3C8D3DAE2CAF2DE4FC69
:1005C6007D0A12000F8E308F31AE30AF31E4FC7DE4
:1005D6000A12000F8C3E8D3FAE30AF31E4FC7D0A2F
:1005E60012000F8E328F33AE32AF33E4FC7D0A1227
:1005F600000F8C408D41AE32AF33E4FC7D0A120011
:100606000F8E428F43AE08AF09E4FC7D0A12000F3D
:100616008C448D45AE08AF09E4FC7D0A12000F8EAE
:10062600348F35AE34AF35E4FC7D0A12000F8C46AC
:100636008D47AE34AF35E4FC7D0A12000F8E488F2D
:1006460049AE0AAF0BE4FC7D0A12000F8C4A8D4BB3
:10065600AE0AAF0BE4FC7D0A12000F8E368F37AE62
:1006660036AF37E4FC7D0A12000F8C4C8D4DAE364A
:10067600AF37E4FC7D0A12000F8E4E8F4F20B71A5B
:0C06860030B11730B014E51E451F700E97
:100692000509E50970020508E4F51E751F0130B76A
:0D06A2001A20B11730B014E5204521700E6C
:1006AF00050BE50B7002050AE4F52075210120B753
:0706BF001120B10E30B00B59
:1006C600E4F50CF50D750EC8750F4130B71130B154
:0406D6000E20B00B37
:1006DA00E4F510F51175127075134430B73520B171
:0A06EA003220B02FE52845297029C1
:0E06F400E5226480B48005E523B404005010B4
:100702000523E52370020522E4F528752901800BF3
:10071200E4F522752301F52875290120B73530B19A
:0A0722003220B02FE526452770298C
:06072C00E52445257010D4
:100732000525E52570020524E4F5267527018013B9
:10074200E52524FFFBE52434FFF5248B25E4F5267B
:0C07520075270130B71730B11430B0111A
:10075E00E4F51EF51FF520F521F526F527F528F50C
:10076E0029C2B2D2B3D2B4C2B5E4FE7F0A120507D3
:10077E00E5452414F88690C2B2C2B3C2B4C2B5E441
:10078E00FE7F64120507C2B2D2B3D2B4C2B5E4FE84
:10079E007F0A120507E5472414F88690D2B2C2B339
:1007AE00C2B4C2B5E4FE7F64120507C2B2D2B3D2A0
:1007BE00B4C2B5E4FE7F0A120507E5492414F88693
:1007CE0090C2B2D2B3C2B4C2B5E4FE7F64120507C2
:1007DE00C2B2D2B3D2B4C2B5E4FE7F0A120507E5A7
:1007EE004B2414F88690D2B2D2B3C2B4C2B5E4FE92
:1007FE007F64120507C2B2D2B3D2B4C2B5E4FE7F93
:10080E000A120507E54D2414F88690C2B2C2B3D27F
:10081E00B4C2B5E4FE7F64120507C2B2D2B3D2B43D
:10082E00C2B5E4FE7F0A120507E54F2414F8869040
:10083E00D2B2C2B3D2B4C2B5E4FE7F64120507C20F
:10084E00B2D2B3D2B4C2B5E4FE7F0A120507E539BF
:10085E002414F88690D2B2D2B3D2B4C2B5E4FE7FDD
:10086E0064120507C2B2D2B3D2B4C2B5E4FE7F0A97
:10087E00120507E53B2414F88690C2B2C2B3C2B487
:10088E00D2B5E4FE7F64120507C2B2D2B3D2B4C2AF
:10089E00B5E4FE7F0A120507E53D2414F88690D2D2
:1008AE00B2C2B3C2B4D2B5E4FE7F64120507C2B2BF
:1008BE00D2B3D2B4C2B5E4FE7F0A120507E53F24D7
:1008CE0014F88690C2B2D2B3C2B4D2B5E4FE7F643D
:1008DE00120507C2B2D2B3D2B4C2B5E4FE7F0A1279
:1008EE000507E5412414F88690D2B2D2B3C2B4D231
:1008FE00B5E4FE7F64120507C2B2D2B3D2B4C2B55C
:10090E00E4FE7F0A120507E5432414F88690C2B26E
:10091E00C2B3D2B4D2B5E4FE7F64120507C2B2D21E
:10092E00B3D2B4C2B5E4FE7F0A120507E523241440
:10093E00F88690D2B2C2B3D2B4D2B5E4FE7F6412BE
:08094E000507E5244525702E84
:10095600C00CC00DC00EC00FE4FFFEFCFD1204C0AB
:03096600BF011BB3
:10096900C00CC00DC00EC00F7CEC7D517EB87F3D20
:1009790012024C8C0C8D0D8E0E8F0FE524452560CF
:0409890003020566FA
:10098D00C010C011C012C013E4FCFDFEFF1204C064
:08099D00BF01028003020566A0
:0C09A500E53E453F7020E53C453D701AE2
:1009B100C010C011C012C013E4FCFD7E207F4212A2
:1009C100024C8C108D118E128F13C010C011C012E9
:1009D100C0137CEC7D517EB87F3D12024C8C108D92
:0509E100118E128F13BE
:0309E600020566A1
:00000001FF
